{
  "_format": "hh-sol-artifact-1",
  "contractName": "TreeToken",
  "sourceName": "contracts/TreeNFT.sol",
  "abi": [
    {
      "inputs": [],
      "stateMutability": "nonpayable",
      "type": "constructor"
    },
    {
      "anonymous": false,
      "inputs": [
        {
          "indexed": true,
          "internalType": "address",
          "name": "owner",
          "type": "address"
        },
        {
          "indexed": true,
          "internalType": "address",
          "name": "approved",
          "type": "address"
        },
        {
          "indexed": true,
          "internalType": "uint256",
          "name": "tokenId",
          "type": "uint256"
        }
      ],
      "name": "Approval",
      "type": "event"
    },
    {
      "anonymous": false,
      "inputs": [
        {
          "indexed": true,
          "internalType": "address",
          "name": "owner",
          "type": "address"
        },
        {
          "indexed": true,
          "internalType": "address",
          "name": "operator",
          "type": "address"
        },
        {
          "indexed": false,
          "internalType": "bool",
          "name": "approved",
          "type": "bool"
        }
      ],
      "name": "ApprovalForAll",
      "type": "event"
    },
    {
      "anonymous": false,
      "inputs": [
        {
          "indexed": true,
          "internalType": "address",
          "name": "previousOwner",
          "type": "address"
        },
        {
          "indexed": true,
          "internalType": "address",
          "name": "newOwner",
          "type": "address"
        }
      ],
      "name": "OwnershipTransferred",
      "type": "event"
    },
    {
      "anonymous": false,
      "inputs": [
        {
          "indexed": true,
          "internalType": "address",
          "name": "from",
          "type": "address"
        },
        {
          "indexed": true,
          "internalType": "address",
          "name": "to",
          "type": "address"
        },
        {
          "indexed": true,
          "internalType": "uint256",
          "name": "tokenId",
          "type": "uint256"
        }
      ],
      "name": "Transfer",
      "type": "event"
    },
    {
      "inputs": [
        {
          "internalType": "address",
          "name": "to",
          "type": "address"
        },
        {
          "internalType": "uint256",
          "name": "tokenId",
          "type": "uint256"
        }
      ],
      "name": "approve",
      "outputs": [],
      "stateMutability": "nonpayable",
      "type": "function"
    },
    {
      "inputs": [
        {
          "internalType": "address",
          "name": "owner",
          "type": "address"
        }
      ],
      "name": "balanceOf",
      "outputs": [
        {
          "internalType": "uint256",
          "name": "",
          "type": "uint256"
        }
      ],
      "stateMutability": "view",
      "type": "function"
    },
    {
      "inputs": [],
      "name": "count",
      "outputs": [
        {
          "internalType": "uint256",
          "name": "",
          "type": "uint256"
        }
      ],
      "stateMutability": "view",
      "type": "function"
    },
    {
      "inputs": [
        {
          "internalType": "uint256",
          "name": "tokenId",
          "type": "uint256"
        }
      ],
      "name": "getApproved",
      "outputs": [
        {
          "internalType": "address",
          "name": "",
          "type": "address"
        }
      ],
      "stateMutability": "view",
      "type": "function"
    },
    {
      "inputs": [
        {
          "internalType": "address",
          "name": "owner",
          "type": "address"
        },
        {
          "internalType": "address",
          "name": "operator",
          "type": "address"
        }
      ],
      "name": "isApprovedForAll",
      "outputs": [
        {
          "internalType": "bool",
          "name": "",
          "type": "bool"
        }
      ],
      "stateMutability": "view",
      "type": "function"
    },
    {
      "inputs": [
        {
          "internalType": "string",
          "name": "uri",
          "type": "string"
        }
      ],
      "name": "isContentOwned",
      "outputs": [
        {
          "internalType": "bool",
          "name": "",
          "type": "bool"
        }
      ],
      "stateMutability": "view",
      "type": "function"
    },
    {
      "inputs": [
        {
          "internalType": "address",
          "name": "recipeint",
          "type": "address"
        },
        {
          "internalType": "string",
          "name": "metadataURI",
          "type": "string"
        }
      ],
      "name": "mint",
      "outputs": [
        {
          "internalType": "uint256",
          "name": "",
          "type": "uint256"
        }
      ],
      "stateMutability": "nonpayable",
      "type": "function"
    },
    {
      "inputs": [],
      "name": "name",
      "outputs": [
        {
          "internalType": "string",
          "name": "",
          "type": "string"
        }
      ],
      "stateMutability": "view",
      "type": "function"
    },
    {
      "inputs": [],
      "name": "owner",
      "outputs": [
        {
          "internalType": "address",
          "name": "",
          "type": "address"
        }
      ],
      "stateMutability": "view",
      "type": "function"
    },
    {
      "inputs": [
        {
          "internalType": "uint256",
          "name": "tokenId",
          "type": "uint256"
        }
      ],
      "name": "ownerOf",
      "outputs": [
        {
          "internalType": "address",
          "name": "",
          "type": "address"
        }
      ],
      "stateMutability": "view",
      "type": "function"
    },
    {
      "inputs": [],
      "name": "renounceOwnership",
      "outputs": [],
      "stateMutability": "nonpayable",
      "type": "function"
    },
    {
      "inputs": [
        {
          "internalType": "address",
          "name": "to",
          "type": "address"
        },
        {
          "internalType": "string",
          "name": "uri",
          "type": "string"
        }
      ],
      "name": "safeMint",
      "outputs": [],
      "stateMutability": "nonpayable",
      "type": "function"
    },
    {
      "inputs": [
        {
          "internalType": "address",
          "name": "from",
          "type": "address"
        },
        {
          "internalType": "address",
          "name": "to",
          "type": "address"
        },
        {
          "internalType": "uint256",
          "name": "tokenId",
          "type": "uint256"
        }
      ],
      "name": "safeTransferFrom",
      "outputs": [],
      "stateMutability": "nonpayable",
      "type": "function"
    },
    {
      "inputs": [
        {
          "internalType": "address",
          "name": "from",
          "type": "address"
        },
        {
          "internalType": "address",
          "name": "to",
          "type": "address"
        },
        {
          "internalType": "uint256",
          "name": "tokenId",
          "type": "uint256"
        },
        {
          "internalType": "bytes",
          "name": "data",
          "type": "bytes"
        }
      ],
      "name": "safeTransferFrom",
      "outputs": [],
      "stateMutability": "nonpayable",
      "type": "function"
    },
    {
      "inputs": [
        {
          "internalType": "address",
          "name": "operator",
          "type": "address"
        },
        {
          "internalType": "bool",
          "name": "approved",
          "type": "bool"
        }
      ],
      "name": "setApprovalForAll",
      "outputs": [],
      "stateMutability": "nonpayable",
      "type": "function"
    },
    {
      "inputs": [
        {
          "internalType": "bytes4",
          "name": "interfaceId",
          "type": "bytes4"
        }
      ],
      "name": "supportsInterface",
      "outputs": [
        {
          "internalType": "bool",
          "name": "",
          "type": "bool"
        }
      ],
      "stateMutability": "view",
      "type": "function"
    },
    {
      "inputs": [],
      "name": "symbol",
      "outputs": [
        {
          "internalType": "string",
          "name": "",
          "type": "string"
        }
      ],
      "stateMutability": "view",
      "type": "function"
    },
    {
      "inputs": [
        {
          "internalType": "uint256",
          "name": "tokenId",
          "type": "uint256"
        }
      ],
      "name": "tokenURI",
      "outputs": [
        {
          "internalType": "string",
          "name": "",
          "type": "string"
        }
      ],
      "stateMutability": "view",
      "type": "function"
    },
    {
      "inputs": [
        {
          "internalType": "address",
          "name": "from",
          "type": "address"
        },
        {
          "internalType": "address",
          "name": "to",
          "type": "address"
        },
        {
          "internalType": "uint256",
          "name": "tokenId",
          "type": "uint256"
        }
      ],
      "name": "transferFrom",
      "outputs": [],
      "stateMutability": "nonpayable",
      "type": "function"
    },
    {
      "inputs": [
        {
          "internalType": "address",
          "name": "newOwner",
          "type": "address"
        }
      ],
      "name": "transferOwnership",
      "outputs": [],
      "stateMutability": "nonpayable",
      "type": "function"
    }
  ],
  "bytecode": "0x60806040523480156200001157600080fd5b506040518060400160405280600981526020017f54726565546f6b656e00000000000000000000000000000000000000000000008152506040518060400160405280600481526020017f545245450000000000000000000000000000000000000000000000000000000081525081600090816200008f919062000412565b508060019081620000a1919062000412565b505050620000c4620000b8620000ca60201b60201c565b620000d260201b60201c565b620004f9565b600033905090565b6000600760009054906101000a900473ffffffffffffffffffffffffffffffffffffffff16905081600760006101000a81548173ffffffffffffffffffffffffffffffffffffffff021916908373ffffffffffffffffffffffffffffffffffffffff1602179055508173ffffffffffffffffffffffffffffffffffffffff168173ffffffffffffffffffffffffffffffffffffffff167f8be0079c531659141344cd1fd0a4f28419497f9722a3daafe3b4186f6b6457e060405160405180910390a35050565b600081519050919050565b7f4e487b7100000000000000000000000000000000000000000000000000000000600052604160045260246000fd5b7f4e487b7100000000000000000000000000000000000000000000000000000000600052602260045260246000fd5b600060028204905060018216806200021a57607f821691505b60208210810362000230576200022f620001d2565b5b50919050565b60008190508160005260206000209050919050565b60006020601f8301049050919050565b600082821b905092915050565b6000600883026200029a7fffffffffffffffffffffffffffffffffffffffffffffffffffffffffffffffff826200025b565b620002a686836200025b565b95508019841693508086168417925050509392505050565b6000819050919050565b6000819050919050565b6000620002f3620002ed620002e784620002be565b620002c8565b620002be565b9050919050565b6000819050919050565b6200030f83620002d2565b620003276200031e82620002fa565b84845462000268565b825550505050565b600090565b6200033e6200032f565b6200034b81848462000304565b505050565b5b8181101562000373576200036760008262000334565b60018101905062000351565b5050565b601f821115620003c2576200038c8162000236565b62000397846200024b565b81016020851015620003a7578190505b620003bf620003b6856200024b565b83018262000350565b50505b505050565b600082821c905092915050565b6000620003e760001984600802620003c7565b1980831691505092915050565b6000620004028383620003d4565b9150826002028217905092915050565b6200041d8262000198565b67ffffffffffffffff811115620004395762000438620001a3565b5b62000445825462000201565b6200045282828562000377565b600060209050601f8311600181146200048a576000841562000475578287015190505b620004818582620003f4565b865550620004f1565b601f1984166200049a8662000236565b60005b82811015620004c4578489015182556001820191506020850194506020810190506200049d565b86831015620004e45784890151620004e0601f891682620003d4565b8355505b6001600288020188555050505b505050505050565b6130e680620005096000396000f3fe608060405234801561001057600080fd5b506004361061012c5760003560e01c80638da5cb5b116100ad578063c87b56dd11610071578063c87b56dd1461032f578063d0def5211461035f578063d204c45e1461038f578063e985e9c5146103ab578063f2fde38b146103db5761012c565b80638da5cb5b1461028b57806395d89b41146102a95780639f1cabc6146102c7578063a22cb465146102f7578063b88d4fde146103135761012c565b806323b872dd116100f457806323b872dd146101e957806342842e0e146102055780636352211e1461022157806370a0823114610251578063715018a6146102815761012c565b806301ffc9a71461013157806306661abd1461016157806306fdde031461017f578063081812fc1461019d578063095ea7b3146101cd575b600080fd5b61014b60048036038101906101469190611e0b565b6103f7565b6040516101589190611e53565b60405180910390f35b6101696104d9565b6040516101769190611e87565b60405180910390f35b6101876104ea565b6040516101949190611f32565b60405180910390f35b6101b760048036038101906101b29190611f80565b61057c565b6040516101c49190611fee565b60405180910390f35b6101e760048036038101906101e29190612035565b6105c2565b005b61020360048036038101906101fe9190612075565b6106d9565b005b61021f600480360381019061021a9190612075565b610739565b005b61023b60048036038101906102369190611f80565b610759565b6040516102489190611fee565b60405180910390f35b61026b600480360381019061026691906120c8565b6107df565b6040516102789190611e87565b60405180910390f35b610289610896565b005b6102936108aa565b6040516102a09190611fee565b60405180910390f35b6102b16108d4565b6040516102be9190611f32565b60405180910390f35b6102e160048036038101906102dc919061222a565b610966565b6040516102ee9190611e53565b60405180910390f35b610311600480360381019061030c919061229f565b6109a1565b005b61032d60048036038101906103289190612380565b6109b7565b005b61034960048036038101906103449190611f80565b610a19565b6040516103569190611f32565b60405180910390f35b61037960048036038101906103749190612403565b610a2b565b6040516103869190611e87565b60405180910390f35b6103a960048036038101906103a49190612403565b610b0c565b005b6103c560048036038101906103c0919061245f565b610b45565b6040516103d29190611e53565b60405180910390f35b6103f560048036038101906103f091906120c8565b610bd9565b005b60007f80ac58cd000000000000000000000000000000000000000000000000000000007bffffffffffffffffffffffffffffffffffffffffffffffffffffffff1916827bffffffffffffffffffffffffffffffffffffffffffffffffffffffff191614806104c257507f5b5e139f000000000000000000000000000000000000000000000000000000007bffffffffffffffffffffffffffffffffffffffffffffffffffffffff1916827bffffffffffffffffffffffffffffffffffffffffffffffffffffffff1916145b806104d257506104d182610c5c565b5b9050919050565b60006104e56008610cc6565b905090565b6060600080546104f9906124ce565b80601f0160208091040260200160405190810160405280929190818152602001828054610525906124ce565b80156105725780601f1061054757610100808354040283529160200191610572565b820191906000526020600020905b81548152906001019060200180831161055557829003601f168201915b5050505050905090565b600061058782610cd4565b6004600083815260200190815260200160002060009054906101000a900473ffffffffffffffffffffffffffffffffffffffff169050919050565b60006105cd82610759565b90508073ffffffffffffffffffffffffffffffffffffffff168373ffffffffffffffffffffffffffffffffffffffff160361063d576040517f08c379a000000000000000000000000000000000000000000000000000000000815260040161063490612571565b60405180910390fd5b8073ffffffffffffffffffffffffffffffffffffffff1661065c610d1f565b73ffffffffffffffffffffffffffffffffffffffff16148061068b575061068a81610685610d1f565b610b45565b5b6106ca576040517f08c379a00000000000000000000000000000000000000000000000000000000081526004016106c190612603565b60405180910390fd5b6106d48383610d27565b505050565b6106ea6106e4610d1f565b82610de0565b610729576040517f08c379a000000000000000000000000000000000000000000000000000000000815260040161072090612695565b60405180910390fd5b610734838383610e75565b505050565b610754838383604051806020016040528060008152506109b7565b505050565b6000806107658361116e565b9050600073ffffffffffffffffffffffffffffffffffffffff168173ffffffffffffffffffffffffffffffffffffffff16036107d6576040517f08c379a00000000000000000000000000000000000000000000000000000000081526004016107cd90612701565b60405180910390fd5b80915050919050565b60008073ffffffffffffffffffffffffffffffffffffffff168273ffffffffffffffffffffffffffffffffffffffff160361084f576040517f08c379a000000000000000000000000000000000000000000000000000000000815260040161084690612793565b60405180910390fd5b600360008373ffffffffffffffffffffffffffffffffffffffff1673ffffffffffffffffffffffffffffffffffffffff168152602001908152602001600020549050919050565b61089e6111ab565b6108a86000611229565b565b6000600760009054906101000a900473ffffffffffffffffffffffffffffffffffffffff16905090565b6060600180546108e3906124ce565b80601f016020809104026020016040519081016040528092919081815260200182805461090f906124ce565b801561095c5780601f106109315761010080835404028352916020019161095c565b820191906000526020600020905b81548152906001019060200180831161093f57829003601f168201915b5050505050905090565b6000600160098360405161097a91906127ef565b908152602001604051809103902060009054906101000a900460ff1660ff16149050919050565b6109b36109ac610d1f565b83836112ef565b5050565b6109c86109c2610d1f565b83610de0565b610a07576040517f08c379a00000000000000000000000000000000000000000000000000000000081526004016109fe90612695565b60405180910390fd5b610a138484848461145b565b50505050565b6060610a24826114b7565b9050919050565b60006001600983604051610a3f91906127ef565b908152602001604051809103902060009054906101000a900460ff1660ff1603610a9e576040517f08c379a0000000000000000000000000000000000000000000000000000000008152600401610a9590612852565b60405180910390fd5b6000610aaa6008610cc6565b9050610ab660086115c9565b6001600984604051610ac891906127ef565b908152602001604051809103902060006101000a81548160ff021916908360ff160217905550610af884826115df565b610b0281846117fc565b8091505092915050565b610b146111ab565b6000610b206008610cc6565b9050610b2c60086115c9565b610b368382611869565b610b4081836117fc565b505050565b6000600560008473ffffffffffffffffffffffffffffffffffffffff1673ffffffffffffffffffffffffffffffffffffffff16815260200190815260200160002060008373ffffffffffffffffffffffffffffffffffffffff1673ffffffffffffffffffffffffffffffffffffffff16815260200190815260200160002060009054906101000a900460ff16905092915050565b610be16111ab565b600073ffffffffffffffffffffffffffffffffffffffff168173ffffffffffffffffffffffffffffffffffffffff1603610c50576040517f08c379a0000000000000000000000000000000000000000000000000000000008152600401610c47906128e4565b60405180910390fd5b610c5981611229565b50565b60007f01ffc9a7000000000000000000000000000000000000000000000000000000007bffffffffffffffffffffffffffffffffffffffffffffffffffffffff1916827bffffffffffffffffffffffffffffffffffffffffffffffffffffffff1916149050919050565b600081600001549050919050565b610cdd81611887565b610d1c576040517f08c379a0000000000000000000000000000000000000000000000000000000008152600401610d1390612701565b60405180910390fd5b50565b600033905090565b816004600083815260200190815260200160002060006101000a81548173ffffffffffffffffffffffffffffffffffffffff021916908373ffffffffffffffffffffffffffffffffffffffff160217905550808273ffffffffffffffffffffffffffffffffffffffff16610d9a83610759565b73ffffffffffffffffffffffffffffffffffffffff167f8c5be1e5ebec7d5bd14f71427d1e84f3dd0314c0f7b2291e5b200ac8c7c3b92560405160405180910390a45050565b600080610dec83610759565b90508073ffffffffffffffffffffffffffffffffffffffff168473ffffffffffffffffffffffffffffffffffffffff161480610e2e5750610e2d8185610b45565b5b80610e6c57508373ffffffffffffffffffffffffffffffffffffffff16610e548461057c565b73ffffffffffffffffffffffffffffffffffffffff16145b91505092915050565b8273ffffffffffffffffffffffffffffffffffffffff16610e9582610759565b73ffffffffffffffffffffffffffffffffffffffff1614610eeb576040517f08c379a0000000000000000000000000000000000000000000000000000000008152600401610ee290612976565b60405180910390fd5b600073ffffffffffffffffffffffffffffffffffffffff168273ffffffffffffffffffffffffffffffffffffffff1603610f5a576040517f08c379a0000000000000000000000000000000000000000000000000000000008152600401610f5190612a08565b60405180910390fd5b610f6783838360016118c8565b8273ffffffffffffffffffffffffffffffffffffffff16610f8782610759565b73ffffffffffffffffffffffffffffffffffffffff1614610fdd576040517f08c379a0000000000000000000000000000000000000000000000000000000008152600401610fd490612976565b60405180910390fd5b6004600082815260200190815260200160002060006101000a81549073ffffffffffffffffffffffffffffffffffffffff02191690556001600360008573ffffffffffffffffffffffffffffffffffffffff1673ffffffffffffffffffffffffffffffffffffffff168152602001908152602001600020600082825403925050819055506001600360008473ffffffffffffffffffffffffffffffffffffffff1673ffffffffffffffffffffffffffffffffffffffff16815260200190815260200160002060008282540192505081905550816002600083815260200190815260200160002060006101000a81548173ffffffffffffffffffffffffffffffffffffffff021916908373ffffffffffffffffffffffffffffffffffffffff160217905550808273ffffffffffffffffffffffffffffffffffffffff168473ffffffffffffffffffffffffffffffffffffffff167fddf252ad1be2c89b69c2b068fc378daa952ba7f163c4a11628f55a4df523b3ef60405160405180910390a461116983838360016118ce565b505050565b60006002600083815260200190815260200160002060009054906101000a900473ffffffffffffffffffffffffffffffffffffffff169050919050565b6111b3610d1f565b73ffffffffffffffffffffffffffffffffffffffff166111d16108aa565b73ffffffffffffffffffffffffffffffffffffffff1614611227576040517f08c379a000000000000000000000000000000000000000000000000000000000815260040161121e90612a74565b60405180910390fd5b565b6000600760009054906101000a900473ffffffffffffffffffffffffffffffffffffffff16905081600760006101000a81548173ffffffffffffffffffffffffffffffffffffffff021916908373ffffffffffffffffffffffffffffffffffffffff1602179055508173ffffffffffffffffffffffffffffffffffffffff168173ffffffffffffffffffffffffffffffffffffffff167f8be0079c531659141344cd1fd0a4f28419497f9722a3daafe3b4186f6b6457e060405160405180910390a35050565b8173ffffffffffffffffffffffffffffffffffffffff168373ffffffffffffffffffffffffffffffffffffffff160361135d576040517f08c379a000000000000000000000000000000000000000000000000000000000815260040161135490612ae0565b60405180910390fd5b80600560008573ffffffffffffffffffffffffffffffffffffffff1673ffffffffffffffffffffffffffffffffffffffff16815260200190815260200160002060008473ffffffffffffffffffffffffffffffffffffffff1673ffffffffffffffffffffffffffffffffffffffff16815260200190815260200160002060006101000a81548160ff0219169083151502179055508173ffffffffffffffffffffffffffffffffffffffff168373ffffffffffffffffffffffffffffffffffffffff167f17307eab39ab6107e8899845ad3d59bd9653f200f220920489ca2b5937696c318360405161144e9190611e53565b60405180910390a3505050565b611466848484610e75565b611472848484846118d4565b6114b1576040517f08c379a00000000000000000000000000000000000000000000000000000000081526004016114a890612b72565b60405180910390fd5b50505050565b60606114c282610cd4565b60006006600084815260200190815260200160002080546114e2906124ce565b80601f016020809104026020016040519081016040528092919081815260200182805461150e906124ce565b801561155b5780601f106115305761010080835404028352916020019161155b565b820191906000526020600020905b81548152906001019060200180831161153e57829003601f168201915b50505050509050600061156c611a5b565b905060008151036115815781925050506115c4565b6000825111156115b657808260405160200161159e929190612b92565b604051602081830303815290604052925050506115c4565b6115bf84611a98565b925050505b919050565b6001816000016000828254019250508190555050565b600073ffffffffffffffffffffffffffffffffffffffff168273ffffffffffffffffffffffffffffffffffffffff160361164e576040517f08c379a000000000000000000000000000000000000000000000000000000000815260040161164590612c02565b60405180910390fd5b61165781611887565b15611697576040517f08c379a000000000000000000000000000000000000000000000000000000000815260040161168e90612c6e565b60405180910390fd5b6116a56000838360016118c8565b6116ae81611887565b156116ee576040517f08c379a00000000000000000000000000000000000000000000000000000000081526004016116e590612c6e565b60405180910390fd5b6001600360008473ffffffffffffffffffffffffffffffffffffffff1673ffffffffffffffffffffffffffffffffffffffff16815260200190815260200160002060008282540192505081905550816002600083815260200190815260200160002060006101000a81548173ffffffffffffffffffffffffffffffffffffffff021916908373ffffffffffffffffffffffffffffffffffffffff160217905550808273ffffffffffffffffffffffffffffffffffffffff16600073ffffffffffffffffffffffffffffffffffffffff167fddf252ad1be2c89b69c2b068fc378daa952ba7f163c4a11628f55a4df523b3ef60405160405180910390a46117f86000838360016118ce565b5050565b61180582611887565b611844576040517f08c379a000000000000000000000000000000000000000000000000000000000815260040161183b90612d00565b60405180910390fd5b806006600084815260200190815260200160002090816118649190612ecc565b505050565b611883828260405180602001604052806000815250611b00565b5050565b60008073ffffffffffffffffffffffffffffffffffffffff166118a98361116e565b73ffffffffffffffffffffffffffffffffffffffff1614159050919050565b50505050565b50505050565b60006118f58473ffffffffffffffffffffffffffffffffffffffff16611b5b565b15611a4e578373ffffffffffffffffffffffffffffffffffffffff1663150b7a0261191e610d1f565b8786866040518563ffffffff1660e01b81526004016119409493929190612ff3565b6020604051808303816000875af192505050801561197c57506040513d601f19601f820116820180604052508101906119799190613054565b60015b6119fe573d80600081146119ac576040519150601f19603f3d011682016040523d82523d6000602084013e6119b1565b606091505b5060008151036119f6576040517f08c379a00000000000000000000000000000000000000000000000000000000081526004016119ed90612b72565b60405180910390fd5b805181602001fd5b63150b7a0260e01b7bffffffffffffffffffffffffffffffffffffffffffffffffffffffff1916817bffffffffffffffffffffffffffffffffffffffffffffffffffffffff191614915050611a53565b600190505b949350505050565b60606040518060400160405280600781526020017f697066733a2f2f00000000000000000000000000000000000000000000000000815250905090565b6060611aa382610cd4565b6000611aad611a5b565b90506000815111611acd5760405180602001604052806000815250611af8565b80611ad784611b7e565b604051602001611ae8929190612b92565b6040516020818303038152906040525b915050919050565b611b0a83836115df565b611b1760008484846118d4565b611b56576040517f08c379a0000000000000000000000000000000000000000000000000000000008152600401611b4d90612b72565b60405180910390fd5b505050565b6000808273ffffffffffffffffffffffffffffffffffffffff163b119050919050565b606060006001611b8d84611c4c565b01905060008167ffffffffffffffff811115611bac57611bab6120ff565b5b6040519080825280601f01601f191660200182016040528015611bde5781602001600182028036833780820191505090505b509050600082602001820190505b600115611c41578080600190039150507f3031323334353637383961626364656600000000000000000000000000000000600a86061a8153600a8581611c3557611c34613081565b5b04945060008503611bec575b819350505050919050565b600080600090507a184f03e93ff9f4daa797ed6e38ed64bf6a1f0100000000000000008310611caa577a184f03e93ff9f4daa797ed6e38ed64bf6a1f0100000000000000008381611ca057611c9f613081565b5b0492506040810190505b6d04ee2d6d415b85acef81000000008310611ce7576d04ee2d6d415b85acef81000000008381611cdd57611cdc613081565b5b0492506020810190505b662386f26fc100008310611d1657662386f26fc100008381611d0c57611d0b613081565b5b0492506010810190505b6305f5e1008310611d3f576305f5e1008381611d3557611d34613081565b5b0492506008810190505b6127108310611d64576127108381611d5a57611d59613081565b5b0492506004810190505b60648310611d875760648381611d7d57611d7c613081565b5b0492506002810190505b600a8310611d96576001810190505b80915050919050565b6000604051905090565b600080fd5b600080fd5b60007fffffffff0000000000000000000000000000000000000000000000000000000082169050919050565b611de881611db3565b8114611df357600080fd5b50565b600081359050611e0581611ddf565b92915050565b600060208284031215611e2157611e20611da9565b5b6000611e2f84828501611df6565b91505092915050565b60008115159050919050565b611e4d81611e38565b82525050565b6000602082019050611e686000830184611e44565b92915050565b6000819050919050565b611e8181611e6e565b82525050565b6000602082019050611e9c6000830184611e78565b92915050565b600081519050919050565b600082825260208201905092915050565b60005b83811015611edc578082015181840152602081019050611ec1565b60008484015250505050565b6000601f19601f8301169050919050565b6000611f0482611ea2565b611f0e8185611ead565b9350611f1e818560208601611ebe565b611f2781611ee8565b840191505092915050565b60006020820190508181036000830152611f4c8184611ef9565b905092915050565b611f5d81611e6e565b8114611f6857600080fd5b50565b600081359050611f7a81611f54565b92915050565b600060208284031215611f9657611f95611da9565b5b6000611fa484828501611f6b565b91505092915050565b600073ffffffffffffffffffffffffffffffffffffffff82169050919050565b6000611fd882611fad565b9050919050565b611fe881611fcd565b82525050565b60006020820190506120036000830184611fdf565b92915050565b61201281611fcd565b811461201d57600080fd5b50565b60008135905061202f81612009565b92915050565b6000806040838503121561204c5761204b611da9565b5b600061205a85828601612020565b925050602061206b85828601611f6b565b9150509250929050565b60008060006060848603121561208e5761208d611da9565b5b600061209c86828701612020565b93505060206120ad86828701612020565b92505060406120be86828701611f6b565b9150509250925092565b6000602082840312156120de576120dd611da9565b5b60006120ec84828501612020565b91505092915050565b600080fd5b600080fd5b7f4e487b7100000000000000000000000000000000000000000000000000000000600052604160045260246000fd5b61213782611ee8565b810181811067ffffffffffffffff82111715612156576121556120ff565b5b80604052505050565b6000612169611d9f565b9050612175828261212e565b919050565b600067ffffffffffffffff821115612195576121946120ff565b5b61219e82611ee8565b9050602081019050919050565b82818337600083830152505050565b60006121cd6121c88461217a565b61215f565b9050828152602081018484840111156121e9576121e86120fa565b5b6121f48482856121ab565b509392505050565b600082601f830112612211576122106120f5565b5b81356122218482602086016121ba565b91505092915050565b6000602082840312156122405761223f611da9565b5b600082013567ffffffffffffffff81111561225e5761225d611dae565b5b61226a848285016121fc565b91505092915050565b61227c81611e38565b811461228757600080fd5b50565b60008135905061229981612273565b92915050565b600080604083850312156122b6576122b5611da9565b5b60006122c485828601612020565b92505060206122d58582860161228a565b9150509250929050565b600067ffffffffffffffff8211156122fa576122f96120ff565b5b61230382611ee8565b9050602081019050919050565b600061232361231e846122df565b61215f565b90508281526020810184848401111561233f5761233e6120fa565b5b61234a8482856121ab565b509392505050565b600082601f830112612367576123666120f5565b5b8135612377848260208601612310565b91505092915050565b6000806000806080858703121561239a57612399611da9565b5b60006123a887828801612020565b94505060206123b987828801612020565b93505060406123ca87828801611f6b565b925050606085013567ffffffffffffffff8111156123eb576123ea611dae565b5b6123f787828801612352565b91505092959194509250565b6000806040838503121561241a57612419611da9565b5b600061242885828601612020565b925050602083013567ffffffffffffffff81111561244957612448611dae565b5b612455858286016121fc565b9150509250929050565b6000806040838503121561247657612475611da9565b5b600061248485828601612020565b925050602061249585828601612020565b9150509250929050565b7f4e487b7100000000000000000000000000000000000000000000000000000000600052602260045260246000fd5b600060028204905060018216806124e657607f821691505b6020821081036124f9576124f861249f565b5b50919050565b7f4552433732313a20617070726f76616c20746f2063757272656e74206f776e6560008201527f7200000000000000000000000000000000000000000000000000000000000000602082015250565b600061255b602183611ead565b9150612566826124ff565b604082019050919050565b6000602082019050818103600083015261258a8161254e565b9050919050565b7f4552433732313a20617070726f76652063616c6c6572206973206e6f7420746f60008201527f6b656e206f776e6572206f7220617070726f76656420666f7220616c6c000000602082015250565b60006125ed603d83611ead565b91506125f882612591565b604082019050919050565b6000602082019050818103600083015261261c816125e0565b9050919050565b7f4552433732313a2063616c6c6572206973206e6f7420746f6b656e206f776e6560008201527f72206f7220617070726f76656400000000000000000000000000000000000000602082015250565b600061267f602d83611ead565b915061268a82612623565b604082019050919050565b600060208201905081810360008301526126ae81612672565b9050919050565b7f4552433732313a20696e76616c696420746f6b656e2049440000000000000000600082015250565b60006126eb601883611ead565b91506126f6826126b5565b602082019050919050565b6000602082019050818103600083015261271a816126de565b9050919050565b7f4552433732313a2061646472657373207a65726f206973206e6f74206120766160008201527f6c6964206f776e65720000000000000000000000000000000000000000000000602082015250565b600061277d602983611ead565b915061278882612721565b604082019050919050565b600060208201905081810360008301526127ac81612770565b9050919050565b600081905092915050565b60006127c982611ea2565b6127d381856127b3565b93506127e3818560208601611ebe565b80840191505092915050565b60006127fb82846127be565b915081905092915050565b7f5472656520616c7265616479206d696e74656400000000000000000000000000600082015250565b600061283c601383611ead565b915061284782612806565b602082019050919050565b6000602082019050818103600083015261286b8161282f565b9050919050565b7f4f776e61626c653a206e6577206f776e657220697320746865207a65726f206160008201527f6464726573730000000000000000000000000000000000000000000000000000602082015250565b60006128ce602683611ead565b91506128d982612872565b604082019050919050565b600060208201905081810360008301526128fd816128c1565b9050919050565b7f4552433732313a207472616e736665722066726f6d20696e636f72726563742060008201527f6f776e6572000000000000000000000000000000000000000000000000000000602082015250565b6000612960602583611ead565b915061296b82612904565b604082019050919050565b6000602082019050818103600083015261298f81612953565b9050919050565b7f4552433732313a207472616e7366657220746f20746865207a65726f2061646460008201527f7265737300000000000000000000000000000000000000000000000000000000602082015250565b60006129f2602483611ead565b91506129fd82612996565b604082019050919050565b60006020820190508181036000830152612a21816129e5565b9050919050565b7f4f776e61626c653a2063616c6c6572206973206e6f7420746865206f776e6572600082015250565b6000612a5e602083611ead565b9150612a6982612a28565b602082019050919050565b60006020820190508181036000830152612a8d81612a51565b9050919050565b7f4552433732313a20617070726f766520746f2063616c6c657200000000000000600082015250565b6000612aca601983611ead565b9150612ad582612a94565b602082019050919050565b60006020820190508181036000830152612af981612abd565b9050919050565b7f4552433732313a207472616e7366657220746f206e6f6e20455243373231526560008201527f63656976657220696d706c656d656e7465720000000000000000000000000000602082015250565b6000612b5c603283611ead565b9150612b6782612b00565b604082019050919050565b60006020820190508181036000830152612b8b81612b4f565b9050919050565b6000612b9e82856127be565b9150612baa82846127be565b91508190509392505050565b7f4552433732313a206d696e7420746f20746865207a65726f2061646472657373600082015250565b6000612bec602083611ead565b9150612bf782612bb6565b602082019050919050565b60006020820190508181036000830152612c1b81612bdf565b9050919050565b7f4552433732313a20746f6b656e20616c7265616479206d696e74656400000000600082015250565b6000612c58601c83611ead565b9150612c6382612c22565b602082019050919050565b60006020820190508181036000830152612c8781612c4b565b9050919050565b7f45524337323155524953746f726167653a2055524920736574206f66206e6f6e60008201527f6578697374656e7420746f6b656e000000000000000000000000000000000000602082015250565b6000612cea602e83611ead565b9150612cf582612c8e565b604082019050919050565b60006020820190508181036000830152612d1981612cdd565b9050919050565b60008190508160005260206000209050919050565b60006020601f8301049050919050565b600082821b905092915050565b600060088302612d827fffffffffffffffffffffffffffffffffffffffffffffffffffffffffffffffff82612d45565b612d8c8683612d45565b95508019841693508086168417925050509392505050565b6000819050919050565b6000612dc9612dc4612dbf84611e6e565b612da4565b611e6e565b9050919050565b6000819050919050565b612de383612dae565b612df7612def82612dd0565b848454612d52565b825550505050565b600090565b612e0c612dff565b612e17818484612dda565b505050565b5b81811015612e3b57612e30600082612e04565b600181019050612e1d565b5050565b601f821115612e8057612e5181612d20565b612e5a84612d35565b81016020851015612e69578190505b612e7d612e7585612d35565b830182612e1c565b50505b505050565b600082821c905092915050565b6000612ea360001984600802612e85565b1980831691505092915050565b6000612ebc8383612e92565b9150826002028217905092915050565b612ed582611ea2565b67ffffffffffffffff811115612eee57612eed6120ff565b5b612ef882546124ce565b612f03828285612e3f565b600060209050601f831160018114612f365760008415612f24578287015190505b612f2e8582612eb0565b865550612f96565b601f198416612f4486612d20565b60005b82811015612f6c57848901518255600182019150602085019450602081019050612f47565b86831015612f895784890151612f85601f891682612e92565b8355505b6001600288020188555050505b505050505050565b600081519050919050565b600082825260208201905092915050565b6000612fc582612f9e565b612fcf8185612fa9565b9350612fdf818560208601611ebe565b612fe881611ee8565b840191505092915050565b60006080820190506130086000830187611fdf565b6130156020830186611fdf565b6130226040830185611e78565b81810360608301526130348184612fba565b905095945050505050565b60008151905061304e81611ddf565b92915050565b60006020828403121561306a57613069611da9565b5b60006130788482850161303f565b91505092915050565b7f4e487b7100000000000000000000000000000000000000000000000000000000600052601260045260246000fdfea2646970667358221220d8db08065320234907245ed7d5d862b933aa28536fce8dc609445f53465f61d964736f6c63430008120033",
  "linkReferences": {},
  "deployedLinkReferences": {}
}