{
  "_format": "hh-sol-artifact-1",
  "contractName": "TreeVerification",
  "sourceName": "contracts/rewards.sol",
  "abi": [
    {
      "inputs": [
        {
          "internalType": "address",
          "name": "_verifier",
          "type": "address"
        }
      ],
      "name": "confiscateStake",
      "outputs": [],
      "stateMutability": "nonpayable",
      "type": "function"
    },
    {
      "inputs": [
        {
          "internalType": "uint256",
          "name": "_value",
          "type": "uint256"
        }
      ],
      "name": "depositStake",
      "outputs": [],
      "stateMutability": "payable",
      "type": "function"
    },
    {
      "inputs": [],
      "name": "rewardPerTree",
      "outputs": [
        {
          "internalType": "uint256",
          "name": "",
          "type": "uint256"
        }
      ],
      "stateMutability": "view",
      "type": "function"
    },
    {
      "inputs": [],
      "name": "totalStake",
      "outputs": [
        {
          "internalType": "uint256",
          "name": "",
          "type": "uint256"
        }
      ],
      "stateMutability": "view",
      "type": "function"
    },
    {
      "inputs": [
        {
          "internalType": "uint256",
          "name": "",
          "type": "uint256"
        }
      ],
      "name": "trees",
      "outputs": [
        {
          "internalType": "uint256",
          "name": "id",
          "type": "uint256"
        },
        {
          "internalType": "string",
          "name": "species",
          "type": "string"
        },
        {
          "internalType": "uint256",
          "name": "location",
          "type": "uint256"
        },
        {
          "internalType": "uint256",
          "name": "plantingDate",
          "type": "uint256"
        },
        {
          "internalType": "address",
          "name": "verifier",
          "type": "address"
        }
      ],
      "stateMutability": "view",
      "type": "function"
    },
    {
      "inputs": [
        {
          "internalType": "address",
          "name": "",
          "type": "address"
        }
      ],
      "name": "verifierStake",
      "outputs": [
        {
          "internalType": "uint256",
          "name": "",
          "type": "uint256"
        }
      ],
      "stateMutability": "view",
      "type": "function"
    },
    {
      "inputs": [
        {
          "internalType": "uint256",
          "name": "_id",
          "type": "uint256"
        },
        {
          "internalType": "string",
          "name": "_species",
          "type": "string"
        },
        {
          "internalType": "uint256",
          "name": "_location",
          "type": "uint256"
        },
        {
          "internalType": "uint256",
          "name": "_plantingDate",
          "type": "uint256"
        }
      ],
      "name": "verifyTree",
      "outputs": [],
      "stateMutability": "nonpayable",
      "type": "function"
    }
  ],
  "bytecode": "0x608060405234801561001057600080fd5b50611058806100206000396000f3fe6080604052600436106100705760003560e01c80638b0e9f3f1161004e5780638b0e9f3f14610108578063a4c8f10714610133578063cb08b4d414610170578063cb82cc8f1461019b57610070565b80632ce76b7a146100755780633fd3a15e1461009e5780637a508022146100c7575b600080fd5b34801561008157600080fd5b5061009c6004803603810190610097919061082e565b6101b7565b005b3480156100aa57600080fd5b506100c560048036038101906100c0919061090f565b6103c6565b005b3480156100d357600080fd5b506100ee60048036038101906100e9919061093c565b6104e8565b6040516100ff959493929190610a06565b60405180910390f35b34801561011457600080fd5b5061011d6105c6565b60405161012a9190610a60565b60405180910390f35b34801561013f57600080fd5b5061015a6004803603810190610155919061090f565b6105cc565b6040516101679190610a60565b60405180910390f35b34801561017c57600080fd5b506101856105e4565b6040516101929190610a60565b60405180910390f35b6101b560048036038101906101b0919061093c565b6105ea565b005b60003390506000600160008373ffffffffffffffffffffffffffffffffffffffff1673ffffffffffffffffffffffffffffffffffffffff168152602001908152602001600020541161023e576040517f08c379a000000000000000000000000000000000000000000000000000000000815260040161023590610aed565b60405180910390fd5b6040518060a001604052808681526020018581526020018481526020018381526020018273ffffffffffffffffffffffffffffffffffffffff168152506000808781526020019081526020016000206000820151816000015560208201518160010190816102ac9190610d19565b50604082015181600201556060820151816003015560808201518160040160006101000a81548173ffffffffffffffffffffffffffffffffffffffff021916908373ffffffffffffffffffffffffffffffffffffffff1602179055509050506064600160008373ffffffffffffffffffffffffffffffffffffffff1673ffffffffffffffffffffffffffffffffffffffff16815260200190815260200160002054600560025461035c9190610e1a565b6103669190610e8b565b6103709190610e1a565b6003819055508073ffffffffffffffffffffffffffffffffffffffff166108fc6003549081150290604051600060405180830381858888f193505050501580156103be573d6000803e3d6000fd5b505050505050565b6000600160008373ffffffffffffffffffffffffffffffffffffffff1673ffffffffffffffffffffffffffffffffffffffff1681526020019081526020016000205411610448576040517f08c379a000000000000000000000000000000000000000000000000000000000815260040161043f90610f2e565b60405180910390fd5b600160008273ffffffffffffffffffffffffffffffffffffffff1673ffffffffffffffffffffffffffffffffffffffff16815260200190815260200160002054600260008282546104999190610f4e565b925050819055506000600160008373ffffffffffffffffffffffffffffffffffffffff1673ffffffffffffffffffffffffffffffffffffffff1681526020019081526020016000208190555050565b600060205280600052604060002060009150905080600001549080600101805461051190610b3c565b80601f016020809104026020016040519081016040528092919081815260200182805461053d90610b3c565b801561058a5780601f1061055f5761010080835404028352916020019161058a565b820191906000526020600020905b81548152906001019060200180831161056d57829003601f168201915b5050505050908060020154908060030154908060040160009054906101000a900473ffffffffffffffffffffffffffffffffffffffff16905085565b60025481565b60016020528060005260406000206000915090505481565b60035481565b80341461062c576040517f08c379a000000000000000000000000000000000000000000000000000000000815260040161062390610fce565b60405180910390fd5b80600160003373ffffffffffffffffffffffffffffffffffffffff1673ffffffffffffffffffffffffffffffffffffffff168152602001908152602001600020600082825461067b9190610fee565b9250508190555080600260008282546106949190610fee565b9250508190555050565b6000604051905090565b600080fd5b600080fd5b6000819050919050565b6106c5816106b2565b81146106d057600080fd5b50565b6000813590506106e2816106bc565b92915050565b600080fd5b600080fd5b6000601f19601f8301169050919050565b7f4e487b7100000000000000000000000000000000000000000000000000000000600052604160045260246000fd5b61073b826106f2565b810181811067ffffffffffffffff8211171561075a57610759610703565b5b80604052505050565b600061076d61069e565b90506107798282610732565b919050565b600067ffffffffffffffff82111561079957610798610703565b5b6107a2826106f2565b9050602081019050919050565b82818337600083830152505050565b60006107d16107cc8461077e565b610763565b9050828152602081018484840111156107ed576107ec6106ed565b5b6107f88482856107af565b509392505050565b600082601f830112610815576108146106e8565b5b81356108258482602086016107be565b91505092915050565b60008060008060808587031215610848576108476106a8565b5b6000610856878288016106d3565b945050602085013567ffffffffffffffff811115610877576108766106ad565b5b61088387828801610800565b9350506040610894878288016106d3565b92505060606108a5878288016106d3565b91505092959194509250565b600073ffffffffffffffffffffffffffffffffffffffff82169050919050565b60006108dc826108b1565b9050919050565b6108ec816108d1565b81146108f757600080fd5b50565b600081359050610909816108e3565b92915050565b600060208284031215610925576109246106a8565b5b6000610933848285016108fa565b91505092915050565b600060208284031215610952576109516106a8565b5b6000610960848285016106d3565b91505092915050565b610972816106b2565b82525050565b600081519050919050565b600082825260208201905092915050565b60005b838110156109b2578082015181840152602081019050610997565b60008484015250505050565b60006109c982610978565b6109d38185610983565b93506109e3818560208601610994565b6109ec816106f2565b840191505092915050565b610a00816108d1565b82525050565b600060a082019050610a1b6000830188610969565b8181036020830152610a2d81876109be565b9050610a3c6040830186610969565b610a496060830185610969565b610a5660808301846109f7565b9695505050505050565b6000602082019050610a756000830184610969565b92915050565b7f566572696669657220686173206e6f207374616b6520696e20746865206e657460008201527f776f726b2e000000000000000000000000000000000000000000000000000000602082015250565b6000610ad7602583610983565b9150610ae282610a7b565b604082019050919050565b60006020820190508181036000830152610b0681610aca565b9050919050565b7f4e487b7100000000000000000000000000000000000000000000000000000000600052602260045260246000fd5b60006002820490506001821680610b5457607f821691505b602082108103610b6757610b66610b0d565b5b50919050565b60008190508160005260206000209050919050565b60006020601f8301049050919050565b600082821b905092915050565b600060088302610bcf7fffffffffffffffffffffffffffffffffffffffffffffffffffffffffffffffff82610b92565b610bd98683610b92565b95508019841693508086168417925050509392505050565b6000819050919050565b6000610c16610c11610c0c846106b2565b610bf1565b6106b2565b9050919050565b6000819050919050565b610c3083610bfb565b610c44610c3c82610c1d565b848454610b9f565b825550505050565b600090565b610c59610c4c565b610c64818484610c27565b505050565b5b81811015610c8857610c7d600082610c51565b600181019050610c6a565b5050565b601f821115610ccd57610c9e81610b6d565b610ca784610b82565b81016020851015610cb6578190505b610cca610cc285610b82565b830182610c69565b50505b505050565b600082821c905092915050565b6000610cf060001984600802610cd2565b1980831691505092915050565b6000610d098383610cdf565b9150826002028217905092915050565b610d2282610978565b67ffffffffffffffff811115610d3b57610d3a610703565b5b610d458254610b3c565b610d50828285610c8c565b600060209050601f831160018114610d835760008415610d71578287015190505b610d7b8582610cfd565b865550610de3565b601f198416610d9186610b6d565b60005b82811015610db957848901518255600182019150602085019450602081019050610d94565b86831015610dd65784890151610dd2601f891682610cdf565b8355505b6001600288020188555050505b505050505050565b7f4e487b7100000000000000000000000000000000000000000000000000000000600052601160045260246000fd5b6000610e25826106b2565b9150610e30836106b2565b9250828202610e3e816106b2565b91508282048414831517610e5557610e54610deb565b5b5092915050565b7f4e487b7100000000000000000000000000000000000000000000000000000000600052601260045260246000fd5b6000610e96826106b2565b9150610ea1836106b2565b925082610eb157610eb0610e5c565b5b828204905092915050565b7f566572696669657220686173206e6f207374616b6520746f20636f6e6669736360008201527f6174652e00000000000000000000000000000000000000000000000000000000602082015250565b6000610f18602483610983565b9150610f2382610ebc565b604082019050919050565b60006020820190508181036000830152610f4781610f0b565b9050919050565b6000610f59826106b2565b9150610f64836106b2565b9250828203905081811115610f7c57610f7b610deb565b5b92915050565b7f496e636f7272656374206465706f73697420616d6f756e742e00000000000000600082015250565b6000610fb8601983610983565b9150610fc382610f82565b602082019050919050565b60006020820190508181036000830152610fe781610fab565b9050919050565b6000610ff9826106b2565b9150611004836106b2565b925082820190508082111561101c5761101b610deb565b5b9291505056fea264697066735822122085ac8806cbe4e4c89344041fa12e2ba1af87ae9bc108ac8d136348830b57d56064736f6c63430008120033",
  "linkReferences": {},
  "deployedLinkReferences": {}
}