{
  "_format": "hh-sol-artifact-1",
  "contractName": "TransactionData",
  "sourceName": "contracts/transact.sol",
  "abi": [
    {
      "inputs": [
        {
          "internalType": "address",
          "name": "sender",
          "type": "address"
        },
        {
          "internalType": "uint256",
          "name": "value",
          "type": "uint256"
        }
      ],
      "name": "addTransaction",
      "outputs": [],
      "stateMutability": "nonpayable",
      "type": "function"
    },
    {
      "inputs": [],
      "name": "transactionCount",
      "outputs": [
        {
          "internalType": "uint256",
          "name": "",
          "type": "uint256"
        }
      ],
      "stateMutability": "view",
      "type": "function"
    },
    {
      "inputs": [
        {
          "internalType": "uint256",
          "name": "",
          "type": "uint256"
        }
      ],
      "name": "transactions",
      "outputs": [
        {
          "internalType": "uint256",
          "name": "id",
          "type": "uint256"
        },
        {
          "internalType": "address",
          "name": "sender",
          "type": "address"
        },
        {
          "internalType": "uint256",
          "name": "value",
          "type": "uint256"
        },
        {
          "internalType": "uint256",
          "name": "timestamp",
          "type": "uint256"
        }
      ],
      "stateMutability": "view",
      "type": "function"
    }
  ],
  "bytecode": "0x6080604052600060015534801561001557600080fd5b5061040f806100256000396000f3fe608060405234801561001057600080fd5b50600436106100415760003560e01c806384a37273146100465780639ace38c214610062578063b77bf60014610095575b600080fd5b610060600480360381019061005b9190610277565b6100b3565b005b61007c600480360381019061007791906102b7565b610188565b60405161008c9493929190610302565b60405180910390f35b61009d6101d8565b6040516100aa9190610347565b60405180910390f35b600160008154809291906100c690610391565b91905055506000600154905060405180608001604052808281526020018473ffffffffffffffffffffffffffffffffffffffff168152602001838152602001428152506000808381526020019081526020016000206000820151816000015560208201518160010160006101000a81548173ffffffffffffffffffffffffffffffffffffffff021916908373ffffffffffffffffffffffffffffffffffffffff1602179055506040820151816002015560608201518160030155905050505050565b60006020528060005260406000206000915090508060000154908060010160009054906101000a900473ffffffffffffffffffffffffffffffffffffffff16908060020154908060030154905084565b60015481565b600080fd5b600073ffffffffffffffffffffffffffffffffffffffff82169050919050565b600061020e826101e3565b9050919050565b61021e81610203565b811461022957600080fd5b50565b60008135905061023b81610215565b92915050565b6000819050919050565b61025481610241565b811461025f57600080fd5b50565b6000813590506102718161024b565b92915050565b6000806040838503121561028e5761028d6101de565b5b600061029c8582860161022c565b92505060206102ad85828601610262565b9150509250929050565b6000602082840312156102cd576102cc6101de565b5b60006102db84828501610262565b91505092915050565b6102ed81610241565b82525050565b6102fc81610203565b82525050565b600060808201905061031760008301876102e4565b61032460208301866102f3565b61033160408301856102e4565b61033e60608301846102e4565b95945050505050565b600060208201905061035c60008301846102e4565b92915050565b7f4e487b7100000000000000000000000000000000000000000000000000000000600052601160045260246000fd5b600061039c82610241565b91507fffffffffffffffffffffffffffffffffffffffffffffffffffffffffffffffff82036103ce576103cd610362565b5b60018201905091905056fea2646970667358221220da87e70d73361cf3e76692c23658d472b9310914d03d6d67261a60293ea0d4d264736f6c63430008120033",
  "linkReferences": {},
  "deployedLinkReferences": {}
}